{
  "contracts/AntiLiquidationPostInteraction.sol": {
    "AntiLiquidationPostInteraction": {
      "abi": [
        {
          "inputs": [],
          "name": "CallFailed",
          "type": "error"
        },
        {
          "anonymous": false,
          "inputs": [
            {
              "indexed": false,
              "internalType": "bytes32",
              "name": "orderHash",
              "type": "bytes32"
            },
            {
              "indexed": false,
              "internalType": "uint256",
              "name": "makingAmount",
              "type": "uint256"
            },
            {
              "indexed": false,
              "internalType": "uint256",
              "name": "takingAmount",
              "type": "uint256"
            }
          ],
          "name": "PerformedAntiLiquidationCall",
          "type": "event"
        },
        {
          "inputs": [
            {
              "components": [
                {
                  "internalType": "uint256",
                  "name": "salt",
                  "type": "uint256"
                },
                {
                  "internalType": "Address",
                  "name": "maker",
                  "type": "uint256"
                },
                {
                  "internalType": "Address",
                  "name": "receiver",
                  "type": "uint256"
                },
                {
                  "internalType": "Address",
                  "name": "makerAsset",
                  "type": "uint256"
                },
                {
                  "internalType": "Address",
                  "name": "takerAsset",
                  "type": "uint256"
                },
                {
                  "internalType": "uint256",
                  "name": "makingAmount",
                  "type": "uint256"
                },
                {
                  "internalType": "uint256",
                  "name": "takingAmount",
                  "type": "uint256"
                },
                {
                  "internalType": "MakerTraits",
                  "name": "makerTraits",
                  "type": "uint256"
                }
              ],
              "internalType": "struct IOrderMixin.Order",
              "name": "order",
              "type": "tuple"
            },
            {
              "internalType": "bytes",
              "name": "extension",
              "type": "bytes"
            },
            {
              "internalType": "bytes32",
              "name": "orderHash",
              "type": "bytes32"
            },
            {
              "internalType": "address",
              "name": "taker",
              "type": "address"
            },
            {
              "internalType": "uint256",
              "name": "makingAmount",
              "type": "uint256"
            },
            {
              "internalType": "uint256",
              "name": "takingAmount",
              "type": "uint256"
            },
            {
              "internalType": "uint256",
              "name": "remainingMakingAmount",
              "type": "uint256"
            },
            {
              "internalType": "bytes",
              "name": "extraData",
              "type": "bytes"
            }
          ],
          "name": "postInteraction",
          "outputs": [],
          "stateMutability": "nonpayable",
          "type": "function"
        }
      ],
      "evm": {
        "bytecode": {
          "linkReferences": {},
          "object": "608060405234801561001057600080fd5b50610358806100206000396000f3fe608060405234801561001057600080fd5b506004361061002b5760003560e01c8063462ebde214610030575b600080fd5b61004361003e3660046101ba565b610045565b005b601481111561016557600061005a8284610294565b60601c9050600061006e83601481876102c9565b8080601f0160208091040260200160405190810160405280939291908181526020018383808284376000920182905250604051949550936001600160a01b03871693506100be92508591506102f3565b600060405180830381855af49150503d80600081146100f9576040519150601f19603f3d011682016040523d82523d6000602084013e6100fe565b606091505b505090508061012057604051633204506f60e01b815260040160405180910390fd5b604080518b8152602081018a90529081018890527f487af7b6964d13bca292081f881c682447de431fa4be73bb51afd27e9c2b51539060600160405180910390a15050505b50505050505050505050565b60008083601f84011261018357600080fd5b50813567ffffffffffffffff81111561019b57600080fd5b6020830191508360208285010111156101b357600080fd5b9250929050565b6000806000806000806000806000808a8c036101e08112156101db57600080fd5b610100808212156101eb57600080fd5b8c9b508b0135905067ffffffffffffffff8082111561020957600080fd5b6102158e838f01610171565b909b5099506101208d013598506101408d013591506001600160a01b038216821461023f57600080fd5b9096506101608c013595506101808c013594506101a08c013593506101c08c0135908082111561026e57600080fd5b5061027b8d828e01610171565b915080935050809150509295989b9194979a5092959850565b6bffffffffffffffffffffffff1981358181169160148510156102c15780818660140360031b1b83161692505b505092915050565b600080858511156102d957600080fd5b838611156102e657600080fd5b5050820193919092039150565b6000825160005b8181101561031457602081860181015185830152016102fa565b50600092019182525091905056fea2646970667358221220b0247325a40973f6a3d9946296fd61d2181de26051ef731d52bac338faf3c86064736f6c63430008130033",
          "opcodes": "PUSH1 0x80 PUSH1 0x40 MSTORE CALLVALUE DUP1 ISZERO PUSH2 0x10 JUMPI PUSH1 0x0 DUP1 REVERT JUMPDEST POP PUSH2 0x358 DUP1 PUSH2 0x20 PUSH1 0x0 CODECOPY PUSH1 0x0 RETURN INVALID PUSH1 0x80 PUSH1 0x40 MSTORE CALLVALUE DUP1 ISZERO PUSH2 0x10 JUMPI PUSH1 0x0 DUP1 REVERT JUMPDEST POP PUSH1 0x4 CALLDATASIZE LT PUSH2 0x2B JUMPI PUSH1 0x0 CALLDATALOAD PUSH1 0xE0 SHR DUP1 PUSH4 0x462EBDE2 EQ PUSH2 0x30 JUMPI JUMPDEST PUSH1 0x0 DUP1 REVERT JUMPDEST PUSH2 0x43 PUSH2 0x3E CALLDATASIZE PUSH1 0x4 PUSH2 0x1BA JUMP JUMPDEST PUSH2 0x45 JUMP JUMPDEST STOP JUMPDEST PUSH1 0x14 DUP2 GT ISZERO PUSH2 0x165 JUMPI PUSH1 0x0 PUSH2 0x5A DUP3 DUP5 PUSH2 0x294 JUMP JUMPDEST PUSH1 0x60 SHR SWAP1 POP PUSH1 0x0 PUSH2 0x6E DUP4 PUSH1 0x14 DUP2 DUP8 PUSH2 0x2C9 JUMP JUMPDEST DUP1 DUP1 PUSH1 0x1F ADD PUSH1 0x20 DUP1 SWAP2 DIV MUL PUSH1 0x20 ADD PUSH1 0x40 MLOAD SWAP1 DUP2 ADD PUSH1 0x40 MSTORE DUP1 SWAP4 SWAP3 SWAP2 SWAP1 DUP2 DUP2 MSTORE PUSH1 0x20 ADD DUP4 DUP4 DUP1 DUP3 DUP5 CALLDATACOPY PUSH1 0x0 SWAP3 ADD DUP3 SWAP1 MSTORE POP PUSH1 0x40 MLOAD SWAP5 SWAP6 POP SWAP4 PUSH1 0x1 PUSH1 0x1 PUSH1 0xA0 SHL SUB DUP8 AND SWAP4 POP PUSH2 0xBE SWAP3 POP DUP6 SWAP2 POP PUSH2 0x2F3 JUMP JUMPDEST PUSH1 0x0 PUSH1 0x40 MLOAD DUP1 DUP4 SUB DUP2 DUP6 GAS DELEGATECALL SWAP2 POP POP RETURNDATASIZE DUP1 PUSH1 0x0 DUP2 EQ PUSH2 0xF9 JUMPI PUSH1 0x40 MLOAD SWAP2 POP PUSH1 0x1F NOT PUSH1 0x3F RETURNDATASIZE ADD AND DUP3 ADD PUSH1 0x40 MSTORE RETURNDATASIZE DUP3 MSTORE RETURNDATASIZE PUSH1 0x0 PUSH1 0x20 DUP5 ADD RETURNDATACOPY PUSH2 0xFE JUMP JUMPDEST PUSH1 0x60 SWAP2 POP JUMPDEST POP POP SWAP1 POP DUP1 PUSH2 0x120 JUMPI PUSH1 0x40 MLOAD PUSH4 0x3204506F PUSH1 0xE0 SHL DUP2 MSTORE PUSH1 0x4 ADD PUSH1 0x40 MLOAD DUP1 SWAP2 SUB SWAP1 REVERT JUMPDEST PUSH1 0x40 DUP1 MLOAD DUP12 DUP2 MSTORE PUSH1 0x20 DUP2 ADD DUP11 SWAP1 MSTORE SWAP1 DUP2 ADD DUP9 SWAP1 MSTORE PUSH32 0x487AF7B6964D13BCA292081F881C682447DE431FA4BE73BB51AFD27E9C2B5153 SWAP1 PUSH1 0x60 ADD PUSH1 0x40 MLOAD DUP1 SWAP2 SUB SWAP1 LOG1 POP POP POP JUMPDEST POP POP POP POP POP POP POP POP POP POP JUMP JUMPDEST PUSH1 0x0 DUP1 DUP4 PUSH1 0x1F DUP5 ADD SLT PUSH2 0x183 JUMPI PUSH1 0x0 DUP1 REVERT JUMPDEST POP DUP2 CALLDATALOAD PUSH8 0xFFFFFFFFFFFFFFFF DUP2 GT ISZERO PUSH2 0x19B JUMPI PUSH1 0x0 DUP1 REVERT JUMPDEST PUSH1 0x20 DUP4 ADD SWAP2 POP DUP4 PUSH1 0x20 DUP3 DUP6 ADD ADD GT ISZERO PUSH2 0x1B3 JUMPI PUSH1 0x0 DUP1 REVERT JUMPDEST SWAP3 POP SWAP3 SWAP1 POP JUMP JUMPDEST PUSH1 0x0 DUP1 PUSH1 0x0 DUP1 PUSH1 0x0 DUP1 PUSH1 0x0 DUP1 PUSH1 0x0 DUP1 DUP11 DUP13 SUB PUSH2 0x1E0 DUP2 SLT ISZERO PUSH2 0x1DB JUMPI PUSH1 0x0 DUP1 REVERT JUMPDEST PUSH2 0x100 DUP1 DUP3 SLT ISZERO PUSH2 0x1EB JUMPI PUSH1 0x0 DUP1 REVERT JUMPDEST DUP13 SWAP12 POP DUP12 ADD CALLDATALOAD SWAP1 POP PUSH8 0xFFFFFFFFFFFFFFFF DUP1 DUP3 GT ISZERO PUSH2 0x209 JUMPI PUSH1 0x0 DUP1 REVERT JUMPDEST PUSH2 0x215 DUP15 DUP4 DUP16 ADD PUSH2 0x171 JUMP JUMPDEST SWAP1 SWAP12 POP SWAP10 POP PUSH2 0x120 DUP14 ADD CALLDATALOAD SWAP9 POP PUSH2 0x140 DUP14 ADD CALLDATALOAD SWAP2 POP PUSH1 0x1 PUSH1 0x1 PUSH1 0xA0 SHL SUB DUP3 AND DUP3 EQ PUSH2 0x23F JUMPI PUSH1 0x0 DUP1 REVERT JUMPDEST SWAP1 SWAP7 POP PUSH2 0x160 DUP13 ADD CALLDATALOAD SWAP6 POP PUSH2 0x180 DUP13 ADD CALLDATALOAD SWAP5 POP PUSH2 0x1A0 DUP13 ADD CALLDATALOAD SWAP4 POP PUSH2 0x1C0 DUP13 ADD CALLDATALOAD SWAP1 DUP1 DUP3 GT ISZERO PUSH2 0x26E JUMPI PUSH1 0x0 DUP1 REVERT JUMPDEST POP PUSH2 0x27B DUP14 DUP3 DUP15 ADD PUSH2 0x171 JUMP JUMPDEST SWAP2 POP DUP1 SWAP4 POP POP DUP1 SWAP2 POP POP SWAP3 SWAP6 SWAP9 SWAP12 SWAP2 SWAP5 SWAP8 SWAP11 POP SWAP3 SWAP6 SWAP9 POP JUMP JUMPDEST PUSH12 0xFFFFFFFFFFFFFFFFFFFFFFFF NOT DUP2 CALLDATALOAD DUP2 DUP2 AND SWAP2 PUSH1 0x14 DUP6 LT ISZERO PUSH2 0x2C1 JUMPI DUP1 DUP2 DUP7 PUSH1 0x14 SUB PUSH1 0x3 SHL SHL DUP4 AND AND SWAP3 POP JUMPDEST POP POP SWAP3 SWAP2 POP POP JUMP JUMPDEST PUSH1 0x0 DUP1 DUP6 DUP6 GT ISZERO PUSH2 0x2D9 JUMPI PUSH1 0x0 DUP1 REVERT JUMPDEST DUP4 DUP7 GT ISZERO PUSH2 0x2E6 JUMPI PUSH1 0x0 DUP1 REVERT JUMPDEST POP POP DUP3 ADD SWAP4 SWAP2 SWAP1 SWAP3 SUB SWAP2 POP JUMP JUMPDEST PUSH1 0x0 DUP3 MLOAD PUSH1 0x0 JUMPDEST DUP2 DUP2 LT ISZERO PUSH2 0x314 JUMPI PUSH1 0x20 DUP2 DUP7 ADD DUP2 ADD MLOAD DUP6 DUP4 ADD MSTORE ADD PUSH2 0x2FA JUMP JUMPDEST POP PUSH1 0x0 SWAP3 ADD SWAP2 DUP3 MSTORE POP SWAP2 SWAP1 POP JUMP INVALID LOG2 PUSH5 0x6970667358 0x22 SLT KECCAK256 0xB0 0x24 PUSH20 0x25A40973F6A3D9946296FD61D2181DE26051EF73 SAR MSTORE 0xBA 0xC3 CODESIZE STATICCALL RETURN 0xC8 PUSH1 0x64 PUSH20 0x6F6C634300081300330000000000000000000000 "
        },
        "methodIdentifiers": {
          "postInteraction((uint256,uint256,uint256,uint256,uint256,uint256,uint256,uint256),bytes,bytes32,address,uint256,uint256,uint256,bytes)": "462ebde2"
        }
      }
    }
  }
}