{
  "contracts/AntiLiquidationPostInteraction.sol": {
    "AntiLiquidationPostInteraction": {
      "abi": [
        {
          "inputs": [],
          "name": "CallFailed",
          "type": "error"
        },
        {
          "anonymous": false,
          "inputs": [
            {
              "indexed": false,
              "internalType": "bytes32",
              "name": "orderHash",
              "type": "bytes32"
            },
            {
              "indexed": false,
              "internalType": "uint256",
              "name": "makingAmount",
              "type": "uint256"
            },
            {
              "indexed": false,
              "internalType": "uint256",
              "name": "takingAmount",
              "type": "uint256"
            }
          ],
          "name": "PerformedAntiLiquidationCall",
          "type": "event"
        },
        {
          "inputs": [
            {
              "components": [
                {
                  "internalType": "uint256",
                  "name": "salt",
                  "type": "uint256"
                },
                {
                  "internalType": "Address",
                  "name": "maker",
                  "type": "uint256"
                },
                {
                  "internalType": "Address",
                  "name": "receiver",
                  "type": "uint256"
                },
                {
                  "internalType": "Address",
                  "name": "makerAsset",
                  "type": "uint256"
                },
                {
                  "internalType": "Address",
                  "name": "takerAsset",
                  "type": "uint256"
                },
                {
                  "internalType": "uint256",
                  "name": "makingAmount",
                  "type": "uint256"
                },
                {
                  "internalType": "uint256",
                  "name": "takingAmount",
                  "type": "uint256"
                },
                {
                  "internalType": "MakerTraits",
                  "name": "makerTraits",
                  "type": "uint256"
                }
              ],
              "internalType": "struct IOrderMixin.Order",
              "name": "order",
              "type": "tuple"
            },
            {
              "internalType": "bytes",
              "name": "extension",
              "type": "bytes"
            },
            {
              "internalType": "bytes32",
              "name": "orderHash",
              "type": "bytes32"
            },
            {
              "internalType": "address",
              "name": "taker",
              "type": "address"
            },
            {
              "internalType": "uint256",
              "name": "makingAmount",
              "type": "uint256"
            },
            {
              "internalType": "uint256",
              "name": "takingAmount",
              "type": "uint256"
            },
            {
              "internalType": "uint256",
              "name": "remainingMakingAmount",
              "type": "uint256"
            },
            {
              "internalType": "bytes",
              "name": "extraData",
              "type": "bytes"
            }
          ],
          "name": "postInteraction",
          "outputs": [],
          "stateMutability": "nonpayable",
          "type": "function"
        }
      ],
      "evm": {
        "bytecode": {
          "linkReferences": {},
          "object": "608060405234801561001057600080fd5b5061031a806100206000396000f3fe608060405234801561001057600080fd5b506004361061002b5760003560e01c8063462ebde214610030575b600080fd5b61004361003e3660046101b1565b610045565b005b601481111561015c578135606090811c90610063836014818761028b565b8080601f0160208091040260200160405190810160405280939291908181526020018383808284376000920182905250604051949550936001600160a01b03871693506100b392508591506102b5565b6000604051808303816000865af19150503d80600081146100f0576040519150601f19603f3d011682016040523d82523d6000602084013e6100f5565b606091505b505090508061011757604051633204506f60e01b815260040160405180910390fd5b604080518b8152602081018a90529081018890527f487af7b6964d13bca292081f881c682447de431fa4be73bb51afd27e9c2b51539060600160405180910390a15050505b50505050505050505050565b60008083601f84011261017a57600080fd5b50813567ffffffffffffffff81111561019257600080fd5b6020830191508360208285010111156101aa57600080fd5b9250929050565b6000806000806000806000806000808a8c036101e08112156101d257600080fd5b610100808212156101e257600080fd5b8c9b508b0135905067ffffffffffffffff8082111561020057600080fd5b61020c8e838f01610168565b909b5099506101208d013598506101408d013591506001600160a01b038216821461023657600080fd5b9096506101608c013595506101808c013594506101a08c013593506101c08c0135908082111561026557600080fd5b506102728d828e01610168565b915080935050809150509295989b9194979a5092959850565b6000808585111561029b57600080fd5b838611156102a857600080fd5b5050820193919092039150565b6000825160005b818110156102d657602081860181015185830152016102bc565b50600092019182525091905056fea264697066735822122039753deccc4f0b5a908a57aae4e9b7ce648fc6bc25abb362307b44c647746f2864736f6c63430008130033",
          "opcodes": "PUSH1 0x80 PUSH1 0x40 MSTORE CALLVALUE DUP1 ISZERO PUSH2 0x10 JUMPI PUSH1 0x0 DUP1 REVERT JUMPDEST POP PUSH2 0x31A DUP1 PUSH2 0x20 PUSH1 0x0 CODECOPY PUSH1 0x0 RETURN INVALID PUSH1 0x80 PUSH1 0x40 MSTORE CALLVALUE DUP1 ISZERO PUSH2 0x10 JUMPI PUSH1 0x0 DUP1 REVERT JUMPDEST POP PUSH1 0x4 CALLDATASIZE LT PUSH2 0x2B JUMPI PUSH1 0x0 CALLDATALOAD PUSH1 0xE0 SHR DUP1 PUSH4 0x462EBDE2 EQ PUSH2 0x30 JUMPI JUMPDEST PUSH1 0x0 DUP1 REVERT JUMPDEST PUSH2 0x43 PUSH2 0x3E CALLDATASIZE PUSH1 0x4 PUSH2 0x1B1 JUMP JUMPDEST PUSH2 0x45 JUMP JUMPDEST STOP JUMPDEST PUSH1 0x14 DUP2 GT ISZERO PUSH2 0x15C JUMPI DUP2 CALLDATALOAD PUSH1 0x60 SWAP1 DUP2 SHR SWAP1 PUSH2 0x63 DUP4 PUSH1 0x14 DUP2 DUP8 PUSH2 0x28B JUMP JUMPDEST DUP1 DUP1 PUSH1 0x1F ADD PUSH1 0x20 DUP1 SWAP2 DIV MUL PUSH1 0x20 ADD PUSH1 0x40 MLOAD SWAP1 DUP2 ADD PUSH1 0x40 MSTORE DUP1 SWAP4 SWAP3 SWAP2 SWAP1 DUP2 DUP2 MSTORE PUSH1 0x20 ADD DUP4 DUP4 DUP1 DUP3 DUP5 CALLDATACOPY PUSH1 0x0 SWAP3 ADD DUP3 SWAP1 MSTORE POP PUSH1 0x40 MLOAD SWAP5 SWAP6 POP SWAP4 PUSH1 0x1 PUSH1 0x1 PUSH1 0xA0 SHL SUB DUP8 AND SWAP4 POP PUSH2 0xB3 SWAP3 POP DUP6 SWAP2 POP PUSH2 0x2B5 JUMP JUMPDEST PUSH1 0x0 PUSH1 0x40 MLOAD DUP1 DUP4 SUB DUP2 PUSH1 0x0 DUP7 GAS CALL SWAP2 POP POP RETURNDATASIZE DUP1 PUSH1 0x0 DUP2 EQ PUSH2 0xF0 JUMPI PUSH1 0x40 MLOAD SWAP2 POP PUSH1 0x1F NOT PUSH1 0x3F RETURNDATASIZE ADD AND DUP3 ADD PUSH1 0x40 MSTORE RETURNDATASIZE DUP3 MSTORE RETURNDATASIZE PUSH1 0x0 PUSH1 0x20 DUP5 ADD RETURNDATACOPY PUSH2 0xF5 JUMP JUMPDEST PUSH1 0x60 SWAP2 POP JUMPDEST POP POP SWAP1 POP DUP1 PUSH2 0x117 JUMPI PUSH1 0x40 MLOAD PUSH4 0x3204506F PUSH1 0xE0 SHL DUP2 MSTORE PUSH1 0x4 ADD PUSH1 0x40 MLOAD DUP1 SWAP2 SUB SWAP1 REVERT JUMPDEST PUSH1 0x40 DUP1 MLOAD DUP12 DUP2 MSTORE PUSH1 0x20 DUP2 ADD DUP11 SWAP1 MSTORE SWAP1 DUP2 ADD DUP9 SWAP1 MSTORE PUSH32 0x487AF7B6964D13BCA292081F881C682447DE431FA4BE73BB51AFD27E9C2B5153 SWAP1 PUSH1 0x60 ADD PUSH1 0x40 MLOAD DUP1 SWAP2 SUB SWAP1 LOG1 POP POP POP JUMPDEST POP POP POP POP POP POP POP POP POP POP JUMP JUMPDEST PUSH1 0x0 DUP1 DUP4 PUSH1 0x1F DUP5 ADD SLT PUSH2 0x17A JUMPI PUSH1 0x0 DUP1 REVERT JUMPDEST POP DUP2 CALLDATALOAD PUSH8 0xFFFFFFFFFFFFFFFF DUP2 GT ISZERO PUSH2 0x192 JUMPI PUSH1 0x0 DUP1 REVERT JUMPDEST PUSH1 0x20 DUP4 ADD SWAP2 POP DUP4 PUSH1 0x20 DUP3 DUP6 ADD ADD GT ISZERO PUSH2 0x1AA JUMPI PUSH1 0x0 DUP1 REVERT JUMPDEST SWAP3 POP SWAP3 SWAP1 POP JUMP JUMPDEST PUSH1 0x0 DUP1 PUSH1 0x0 DUP1 PUSH1 0x0 DUP1 PUSH1 0x0 DUP1 PUSH1 0x0 DUP1 DUP11 DUP13 SUB PUSH2 0x1E0 DUP2 SLT ISZERO PUSH2 0x1D2 JUMPI PUSH1 0x0 DUP1 REVERT JUMPDEST PUSH2 0x100 DUP1 DUP3 SLT ISZERO PUSH2 0x1E2 JUMPI PUSH1 0x0 DUP1 REVERT JUMPDEST DUP13 SWAP12 POP DUP12 ADD CALLDATALOAD SWAP1 POP PUSH8 0xFFFFFFFFFFFFFFFF DUP1 DUP3 GT ISZERO PUSH2 0x200 JUMPI PUSH1 0x0 DUP1 REVERT JUMPDEST PUSH2 0x20C DUP15 DUP4 DUP16 ADD PUSH2 0x168 JUMP JUMPDEST SWAP1 SWAP12 POP SWAP10 POP PUSH2 0x120 DUP14 ADD CALLDATALOAD SWAP9 POP PUSH2 0x140 DUP14 ADD CALLDATALOAD SWAP2 POP PUSH1 0x1 PUSH1 0x1 PUSH1 0xA0 SHL SUB DUP3 AND DUP3 EQ PUSH2 0x236 JUMPI PUSH1 0x0 DUP1 REVERT JUMPDEST SWAP1 SWAP7 POP PUSH2 0x160 DUP13 ADD CALLDATALOAD SWAP6 POP PUSH2 0x180 DUP13 ADD CALLDATALOAD SWAP5 POP PUSH2 0x1A0 DUP13 ADD CALLDATALOAD SWAP4 POP PUSH2 0x1C0 DUP13 ADD CALLDATALOAD SWAP1 DUP1 DUP3 GT ISZERO PUSH2 0x265 JUMPI PUSH1 0x0 DUP1 REVERT JUMPDEST POP PUSH2 0x272 DUP14 DUP3 DUP15 ADD PUSH2 0x168 JUMP JUMPDEST SWAP2 POP DUP1 SWAP4 POP POP DUP1 SWAP2 POP POP SWAP3 SWAP6 SWAP9 SWAP12 SWAP2 SWAP5 SWAP8 SWAP11 POP SWAP3 SWAP6 SWAP9 POP JUMP JUMPDEST PUSH1 0x0 DUP1 DUP6 DUP6 GT ISZERO PUSH2 0x29B JUMPI PUSH1 0x0 DUP1 REVERT JUMPDEST DUP4 DUP7 GT ISZERO PUSH2 0x2A8 JUMPI PUSH1 0x0 DUP1 REVERT JUMPDEST POP POP DUP3 ADD SWAP4 SWAP2 SWAP1 SWAP3 SUB SWAP2 POP JUMP JUMPDEST PUSH1 0x0 DUP3 MLOAD PUSH1 0x0 JUMPDEST DUP2 DUP2 LT ISZERO PUSH2 0x2D6 JUMPI PUSH1 0x20 DUP2 DUP7 ADD DUP2 ADD MLOAD DUP6 DUP4 ADD MSTORE ADD PUSH2 0x2BC JUMP JUMPDEST POP PUSH1 0x0 SWAP3 ADD SWAP2 DUP3 MSTORE POP SWAP2 SWAP1 POP JUMP INVALID LOG2 PUSH5 0x6970667358 0x22 SLT KECCAK256 CODECOPY PUSH22 0x3DECCC4F0B5A908A57AAE4E9B7CE648FC6BC25ABB362 ADDRESS PUSH28 0x44C647746F2864736F6C634300081300330000000000000000000000 "
        },
        "methodIdentifiers": {
          "postInteraction((uint256,uint256,uint256,uint256,uint256,uint256,uint256,uint256),bytes,bytes32,address,uint256,uint256,uint256,bytes)": "462ebde2"
        }
      }
    }
  }
}